{"abi":[{"type":"constructor","inputs":[],"stateMutability":"nonpayable"},{"type":"fallback","stateMutability":"payable"},{"type":"receive","stateMutability":"payable"},{"type":"function","name":"hasPaid","inputs":[{"name":"","type":"address","internalType":"address"}],"outputs":[{"name":"","type":"bool","internalType":"bool"}],"stateMutability":"view"},{"type":"function","name":"pay","inputs":[],"outputs":[],"stateMutability":"payable"},{"type":"function","name":"withdraw","inputs":[],"outputs":[],"stateMutability":"nonpayable"},{"type":"error","name":"IncorrectAmount","inputs":[]},{"type":"error","name":"NotOwner","inputs":[]}],"bytecode":{"object":"0x60a0604052348015600e575f5ffd5b503373ffffffffffffffffffffffffffffffffffffffff1660808173ffffffffffffffffffffffffffffffffffffffff16815250506080516103956100625f395f818161012f01526101b501526103955ff3fe608060405260043610610037575f3560e01c80631b9265b81461003a5780633ccfd60b14610044578063fbf47a9a1461005a57610038565b5b005b610042610096565b005b34801561004f575f5ffd5b5061005861012d565b005b348015610065575f5ffd5b50610080600480360381019061007b91906102c0565b610246565b60405161008d9190610305565b60405180910390f35b66470de4df8200003410156100d7576040517f69640e7200000000000000000000000000000000000000000000000000000000815260040160405180910390fd5b60015f5f3373ffffffffffffffffffffffffffffffffffffffff1673ffffffffffffffffffffffffffffffffffffffff1681526020019081526020015f205f6101000a81548160ff021916908315150217905550565b7f000000000000000000000000000000000000000000000000000000000000000073ffffffffffffffffffffffffffffffffffffffff163373ffffffffffffffffffffffffffffffffffffffff16146101b2576040517f30cd747100000000000000000000000000000000000000000000000000000000815260040160405180910390fd5b5f7f000000000000000000000000000000000000000000000000000000000000000073ffffffffffffffffffffffffffffffffffffffff16476040516101f79061034b565b5f6040518083038185875af1925050503d805f8114610231576040519150601f19603f3d011682016040523d82523d5f602084013e610236565b606091505b5050905080610243575f5ffd5b50565b5f602052805f5260405f205f915054906101000a900460ff1681565b5f5ffd5b5f73ffffffffffffffffffffffffffffffffffffffff82169050919050565b5f61028f82610266565b9050919050565b61029f81610285565b81146102a9575f5ffd5b50565b5f813590506102ba81610296565b92915050565b5f602082840312156102d5576102d4610262565b5b5f6102e2848285016102ac565b91505092915050565b5f8115159050919050565b6102ff816102eb565b82525050565b5f6020820190506103185f8301846102f6565b92915050565b5f81905092915050565b50565b5f6103365f8361031e565b915061034182610328565b5f82019050919050565b5f6103558261032b565b915081905091905056fea2646970667358221220f3043b541cdb7cb2242196fb84941d3ad8d0cec871949a16f95f56ead7100a2764736f6c634300081b0033","linkReferences":{}},"methodIdentifiers":{"hasPaid(address)":"fbf47a9a","pay()":"1b9265b8","withdraw()":"3ccfd60b"},"id":0}